{
  "block": {
    "1000": "00000020f2ce094a149cbf47be3e03ba2a93dd07d556500e8f66876a358fee2c4f40d32c483a3bd89ff93b0b1c220b4e9e2f2dedcabd143a2f15a20878849bae12b8aa8e278f7a66ffff7f2002000000"
  },
  "wallet": [
    {
    "descriptor": "wpkh([CCF0E6C6/84'/1'/0']vpub5Ys6GCoAR1ecnKrRUmrdPKkR8PLpuK8hqHDW8k92Sw5FxDAAcpPUzpjXWZwZ9SGbBvsVF3vdAuwuPBsTnyx7TARcYtE3Tzu5NhdGD1f1n3y/<0;1>/*)#fxs7rue5",
    "receiveScriptPubkeyList": [
      "0014cb325c29ac1d9f9c56ab77c7f659f6a304a7bd02",
      "001473f7aa4db6847eab27c59214f6ed7254627e7de0",
      "00143f2cf11c7c51c1a8681eb0d572f6500444105431",
      "00143ff8fd4a55e5fb8fa27a14fbe7839d839a31c782",
      "001450ba0fc37fa3e53ee0d97e14185811fe3d60544f",
      "001425de23ea33f26e292e36c1512ab0202a37f8dc63",
      "0014f14544ee2b509d388e4bad05ef9f5bbc9bc60000",
      "0014195f59ee825f241e0c8c3f8c7f1c8a5e103921d7",
      "00141e9857aeaaada8f0fa05027039c386c7570be769",
      "001461a24fef1bb9a914770620ecd0d0167916b84e8d",
      "0014b2063e0a47292674f721df507ddb5b296fb63fa2",
      "0014e816ac2a790f635aacf296a568639187fa6cfc68",
      "001403e95c9a0589ef7163ca72316804ad98e9823b6c",
      "0014a2d784da3cb6ae00cb140f357daf7916e614056b",
      "00149ebe91d11aa6b3586ba5354851fa5f74946968a2",
      "0014778c40aa728d3610cf00423df15679e7c6f46d24",
      "0014246d5ad01d33e43b13c5d77adfa58fcc17bb5b56",
      "0014208ee6d129866b4a0a93a162327b897b5178a43c",
      "00148a68243c210ee46867d255b5c1aadf3f03d2e103",
      "0014bd379bfc0d1fe20d65a9ebf6e2628a4008006c38"
    ],
    "changeScriptPubkeyList": [
      "0014a67c6724ccda9c02d2dfe95e9ceee59b25aeaca0",
      "00148fded5c9261428a89b44696453a760bf8b1a3d34",
      "0014cd8d3d733c71410bfc875172d48c4957d069cec2",
      "0014bde35f718bd5c3114e6a028ebc314cf3524e3d66",
      "0014a57772d19292130f136ab24589fe8254400df488",
      "00142b6a8583f6bad83905e411a3a64d52a9dfb289e8",
      "0014b2a704d38e2824564be93fcb868934ec0854141e",
      "0014dabb4892b09f5ae7a71fbc669cacd792e53012e1",
      "001461fbe540f6d21c8a48a03a66be29634fba8a2b1c",
      "00147bb8993d9c1631cf2f4e0c67d276d142d7533a79",
      "0014037a2ff67c7bd57213634b750968bdab5807763f",
      "00146bbf07f7042f0a667415ae9dd74cdca3441507d9",
      "0014464e3f8ebe0e94c95bf9583b2c0ebb456783c3e8",
      "00146b1f546cd708f56a41be8220575d9512ebf0add9",
      "00144a785b7542c955461e84e27a212ca0bb542c1f89",
      "0014431f3f1d1aef0f52f1cc738463725bac34a83997",
      "001425e713951945d2b09aceac0795ff2b6b584c0fa0",
      "0014e4fc600fed5c050f3b6c43652f71cc848078ad98",
      "0014e1520a63eaeaf0bad60e38daa7a40a5f9d9278d1",
      "00140c4f207717de664a0d36ade71f4e469cb758830d"
    ]
    }
  ],
  "transaction": [
    {
      "hash": "997ab8a3d0d425a925096fc925edd9b3e921a130ae2d5529a9ead6d7af404c1a",
      "raw": "020000000001018bb02bff1426fc696e780fb77734c3a0f3d084674bacab5f52e6ed1a39ac952d0100000000ffffffff02e8030000000000001600146f03ca21904642bb73bb571f4a40d7f44db7137ffcbdf50500000000160014a57772d19292130f136ab24589fe8254400df48802473044022061dd396084048766b13167004d63a4b948c2745e55bf74b5c47e15de97d5586702201ce869efcdadafbf3a8bf313ccb3bf720e1bbb20137296c777ae6e1957b1c19501210399f290b320f5be119189891ec71181dc042c8b2215f2f5aca588fc7cd9bb52b300000000"
    }
  ]
}
